{
  "address": "0x68B1D87F95878fE05B998F19b66F4baba5De1aed",
  "abi": [
    {
      "inputs": [],
      "stateMutability": "nonpayable",
      "type": "constructor"
    },
    {
      "anonymous": false,
      "inputs": [
        {
          "indexed": false,
          "internalType": "address",
          "name": "previousAdmin",
          "type": "address"
        },
        {
          "indexed": false,
          "internalType": "address",
          "name": "newAdmin",
          "type": "address"
        }
      ],
      "name": "AdminChanged",
      "type": "event"
    },
    {
      "anonymous": false,
      "inputs": [
        {
          "indexed": true,
          "internalType": "address",
          "name": "owner",
          "type": "address"
        },
        {
          "indexed": true,
          "internalType": "address",
          "name": "approved",
          "type": "address"
        },
        {
          "indexed": true,
          "internalType": "uint256",
          "name": "tokenId",
          "type": "uint256"
        }
      ],
      "name": "Approval",
      "type": "event"
    },
    {
      "anonymous": false,
      "inputs": [
        {
          "indexed": true,
          "internalType": "address",
          "name": "owner",
          "type": "address"
        },
        {
          "indexed": true,
          "internalType": "address",
          "name": "operator",
          "type": "address"
        },
        {
          "indexed": false,
          "internalType": "bool",
          "name": "approved",
          "type": "bool"
        }
      ],
      "name": "ApprovalForAll",
      "type": "event"
    },
    {
      "anonymous": false,
      "inputs": [
        {
          "indexed": true,
          "internalType": "address",
          "name": "beacon",
          "type": "address"
        }
      ],
      "name": "BeaconUpgraded",
      "type": "event"
    },
    {
      "anonymous": false,
      "inputs": [
        {
          "indexed": true,
          "internalType": "address",
          "name": "delegator",
          "type": "address"
        },
        {
          "indexed": true,
          "internalType": "address",
          "name": "fromDelegate",
          "type": "address"
        },
        {
          "indexed": true,
          "internalType": "address",
          "name": "toDelegate",
          "type": "address"
        }
      ],
      "name": "DelegateChanged",
      "type": "event"
    },
    {
      "anonymous": false,
      "inputs": [
        {
          "indexed": true,
          "internalType": "address",
          "name": "delegate",
          "type": "address"
        },
        {
          "indexed": false,
          "internalType": "uint256",
          "name": "previousBalance",
          "type": "uint256"
        },
        {
          "indexed": false,
          "internalType": "uint256",
          "name": "newBalance",
          "type": "uint256"
        }
      ],
      "name": "DelegateVotesChanged",
      "type": "event"
    },
    {
      "anonymous": false,
      "inputs": [
        {
          "indexed": false,
          "internalType": "uint8",
          "name": "version",
          "type": "uint8"
        }
      ],
      "name": "Initialized",
      "type": "event"
    },
    {
      "anonymous": false,
      "inputs": [
        {
          "indexed": false,
          "internalType": "address",
          "name": "account",
          "type": "address"
        }
      ],
      "name": "Paused",
      "type": "event"
    },
    {
      "anonymous": false,
      "inputs": [
        {
          "indexed": true,
          "internalType": "bytes32",
          "name": "role",
          "type": "bytes32"
        },
        {
          "indexed": true,
          "internalType": "bytes32",
          "name": "previousAdminRole",
          "type": "bytes32"
        },
        {
          "indexed": true,
          "internalType": "bytes32",
          "name": "newAdminRole",
          "type": "bytes32"
        }
      ],
      "name": "RoleAdminChanged",
      "type": "event"
    },
    {
      "anonymous": false,
      "inputs": [
        {
          "indexed": true,
          "internalType": "bytes32",
          "name": "role",
          "type": "bytes32"
        },
        {
          "indexed": true,
          "internalType": "address",
          "name": "account",
          "type": "address"
        },
        {
          "indexed": true,
          "internalType": "address",
          "name": "sender",
          "type": "address"
        }
      ],
      "name": "RoleGranted",
      "type": "event"
    },
    {
      "anonymous": false,
      "inputs": [
        {
          "indexed": true,
          "internalType": "bytes32",
          "name": "role",
          "type": "bytes32"
        },
        {
          "indexed": true,
          "internalType": "address",
          "name": "account",
          "type": "address"
        },
        {
          "indexed": true,
          "internalType": "address",
          "name": "sender",
          "type": "address"
        }
      ],
      "name": "RoleRevoked",
      "type": "event"
    },
    {
      "anonymous": false,
      "inputs": [
        {
          "indexed": false,
          "internalType": "bool",
          "name": "mintable",
          "type": "bool"
        }
      ],
      "name": "ToggleMintable",
      "type": "event"
    },
    {
      "anonymous": false,
      "inputs": [
        {
          "indexed": false,
          "internalType": "bool",
          "name": "transferable",
          "type": "bool"
        }
      ],
      "name": "ToggleTransferable",
      "type": "event"
    },
    {
      "anonymous": false,
      "inputs": [
        {
          "indexed": true,
          "internalType": "address",
          "name": "from",
          "type": "address"
        },
        {
          "indexed": true,
          "internalType": "address",
          "name": "to",
          "type": "address"
        },
        {
          "indexed": true,
          "internalType": "uint256",
          "name": "tokenId",
          "type": "uint256"
        }
      ],
      "name": "Transfer",
      "type": "event"
    },
    {
      "anonymous": false,
      "inputs": [
        {
          "indexed": false,
          "internalType": "address",
          "name": "account",
          "type": "address"
        }
      ],
      "name": "Unpaused",
      "type": "event"
    },
    {
      "anonymous": false,
      "inputs": [
        {
          "indexed": true,
          "internalType": "address",
          "name": "implementation",
          "type": "address"
        }
      ],
      "name": "Upgraded",
      "type": "event"
    },
    {
      "stateMutability": "payable",
      "type": "fallback"
    },
    {
      "inputs": [],
      "name": "DEFAULT_ADMIN_ROLE",
      "outputs": [
        {
          "internalType": "bytes32",
          "name": "",
          "type": "bytes32"
        }
      ],
      "stateMutability": "view",
      "type": "function"
    },
    {
      "inputs": [],
      "name": "DOMAIN_SEPARATOR",
      "outputs": [
        {
          "internalType": "bytes32",
          "name": "",
          "type": "bytes32"
        }
      ],
      "stateMutability": "view",
      "type": "function"
    },
    {
      "inputs": [],
      "name": "MINTER_ROLE",
      "outputs": [
        {
          "internalType": "bytes32",
          "name": "",
          "type": "bytes32"
        }
      ],
      "stateMutability": "view",
      "type": "function"
    },
    {
      "inputs": [],
      "name": "PAUSER_ROLE",
      "outputs": [
        {
          "internalType": "bytes32",
          "name": "",
          "type": "bytes32"
        }
      ],
      "stateMutability": "view",
      "type": "function"
    },
    {
      "inputs": [],
      "name": "UPGRADER_ROLE",
      "outputs": [
        {
          "internalType": "bytes32",
          "name": "",
          "type": "bytes32"
        }
      ],
      "stateMutability": "view",
      "type": "function"
    },
    {
      "inputs": [
        {
          "internalType": "address",
          "name": "to",
          "type": "address"
        },
        {
          "internalType": "uint256",
          "name": "tokenId",
          "type": "uint256"
        }
      ],
      "name": "approve",
      "outputs": [],
      "stateMutability": "nonpayable",
      "type": "function"
    },
    {
      "inputs": [
        {
          "internalType": "address",
          "name": "owner",
          "type": "address"
        }
      ],
      "name": "balanceOf",
      "outputs": [
        {
          "internalType": "uint256",
          "name": "",
          "type": "uint256"
        }
      ],
      "stateMutability": "view",
      "type": "function"
    },
    {
      "inputs": [
        {
          "internalType": "uint256[]",
          "name": "tokenIds",
          "type": "uint256[]"
        }
      ],
      "name": "batchBurn",
      "outputs": [],
      "stateMutability": "nonpayable",
      "type": "function"
    },
    {
      "inputs": [
        {
          "internalType": "address[]",
          "name": "toAddresses",
          "type": "address[]"
        },
        {
          "internalType": "string[]",
          "name": "nickNames",
          "type": "string[]"
        },
        {
          "internalType": "string[]",
          "name": "roles",
          "type": "string[]"
        }
      ],
      "name": "batchMint",
      "outputs": [],
      "stateMutability": "nonpayable",
      "type": "function"
    },
    {
      "inputs": [
        {
          "internalType": "uint256",
          "name": "tokenId",
          "type": "uint256"
        }
      ],
      "name": "burn",
      "outputs": [],
      "stateMutability": "nonpayable",
      "type": "function"
    },
    {
      "inputs": [],
      "name": "defaultRole",
      "outputs": [
        {
          "internalType": "string",
          "name": "",
          "type": "string"
        }
      ],
      "stateMutability": "view",
      "type": "function"
    },
    {
      "inputs": [
        {
          "internalType": "address",
          "name": "delegatee",
          "type": "address"
        }
      ],
      "name": "delegate",
      "outputs": [],
      "stateMutability": "nonpayable",
      "type": "function"
    },
    {
      "inputs": [
        {
          "internalType": "address",
          "name": "delegatee",
          "type": "address"
        },
        {
          "internalType": "uint256",
          "name": "nonce",
          "type": "uint256"
        },
        {
          "internalType": "uint256",
          "name": "expiry",
          "type": "uint256"
        },
        {
          "internalType": "uint8",
          "name": "v",
          "type": "uint8"
        },
        {
          "internalType": "bytes32",
          "name": "r",
          "type": "bytes32"
        },
        {
          "internalType": "bytes32",
          "name": "s",
          "type": "bytes32"
        }
      ],
      "name": "delegateBySig",
      "outputs": [],
      "stateMutability": "nonpayable",
      "type": "function"
    },
    {
      "inputs": [
        {
          "internalType": "address",
          "name": "account",
          "type": "address"
        }
      ],
      "name": "delegates",
      "outputs": [
        {
          "internalType": "address",
          "name": "",
          "type": "address"
        }
      ],
      "stateMutability": "view",
      "type": "function"
    },
    {
      "inputs": [
        {
          "internalType": "uint256",
          "name": "tokenId",
          "type": "uint256"
        }
      ],
      "name": "getApproved",
      "outputs": [
        {
          "internalType": "address",
          "name": "",
          "type": "address"
        }
      ],
      "stateMutability": "view",
      "type": "function"
    },
    {
      "inputs": [
        {
          "internalType": "uint256",
          "name": "blockNumber",
          "type": "uint256"
        }
      ],
      "name": "getPastTotalSupply",
      "outputs": [
        {
          "internalType": "uint256",
          "name": "",
          "type": "uint256"
        }
      ],
      "stateMutability": "view",
      "type": "function"
    },
    {
      "inputs": [
        {
          "internalType": "address",
          "name": "account",
          "type": "address"
        },
        {
          "internalType": "uint256",
          "name": "blockNumber",
          "type": "uint256"
        }
      ],
      "name": "getPastVotes",
      "outputs": [
        {
          "internalType": "uint256",
          "name": "",
          "type": "uint256"
        }
      ],
      "stateMutability": "view",
      "type": "function"
    },
    {
      "inputs": [
        {
          "internalType": "bytes32",
          "name": "role",
          "type": "bytes32"
        }
      ],
      "name": "getRoleAdmin",
      "outputs": [
        {
          "internalType": "bytes32",
          "name": "",
          "type": "bytes32"
        }
      ],
      "stateMutability": "view",
      "type": "function"
    },
    {
      "inputs": [
        {
          "internalType": "address",
          "name": "account",
          "type": "address"
        }
      ],
      "name": "getVotes",
      "outputs": [
        {
          "internalType": "uint256",
          "name": "",
          "type": "uint256"
        }
      ],
      "stateMutability": "view",
      "type": "function"
    },
    {
      "inputs": [
        {
          "internalType": "bytes32",
          "name": "role",
          "type": "bytes32"
        },
        {
          "internalType": "address",
          "name": "account",
          "type": "address"
        }
      ],
      "name": "grantRole",
      "outputs": [],
      "stateMutability": "nonpayable",
      "type": "function"
    },
    {
      "inputs": [
        {
          "internalType": "bytes32",
          "name": "role",
          "type": "bytes32"
        },
        {
          "internalType": "address",
          "name": "account",
          "type": "address"
        }
      ],
      "name": "hasRole",
      "outputs": [
        {
          "internalType": "bool",
          "name": "",
          "type": "bool"
        }
      ],
      "stateMutability": "view",
      "type": "function"
    },
    {
      "inputs": [
        {
          "internalType": "string",
          "name": "name_",
          "type": "string"
        },
        {
          "internalType": "string",
          "name": "symbol_",
          "type": "string"
        },
        {
          "internalType": "string",
          "name": "organization_",
          "type": "string"
        },
        {
          "internalType": "string",
          "name": "defaultRole_",
          "type": "string"
        },
        {
          "internalType": "bool",
          "name": "transferable_",
          "type": "bool"
        },
        {
          "internalType": "bool",
          "name": "mintable_",
          "type": "bool"
        },
        {
          "internalType": "uint256",
          "name": "mintPrice_",
          "type": "uint256"
        },
        {
          "internalType": "address",
          "name": "ownerOfToken",
          "type": "address"
        }
      ],
      "name": "initialize",
      "outputs": [],
      "stateMutability": "nonpayable",
      "type": "function"
    },
    {
      "inputs": [
        {
          "internalType": "address",
          "name": "owner",
          "type": "address"
        },
        {
          "internalType": "address",
          "name": "operator",
          "type": "address"
        }
      ],
      "name": "isApprovedForAll",
      "outputs": [
        {
          "internalType": "bool",
          "name": "",
          "type": "bool"
        }
      ],
      "stateMutability": "view",
      "type": "function"
    },
    {
      "inputs": [
        {
          "internalType": "address",
          "name": "to",
          "type": "address"
        },
        {
          "internalType": "string",
          "name": "nickName",
          "type": "string"
        },
        {
          "internalType": "string",
          "name": "role",
          "type": "string"
        },
        {
          "internalType": "bytes32",
          "name": "hash",
          "type": "bytes32"
        },
        {
          "internalType": "bytes",
          "name": "signature",
          "type": "bytes"
        }
      ],
      "name": "mint",
      "outputs": [],
      "stateMutability": "payable",
      "type": "function"
    },
    {
      "inputs": [],
      "name": "mintPrice",
      "outputs": [
        {
          "internalType": "uint256",
          "name": "",
          "type": "uint256"
        }
      ],
      "stateMutability": "view",
      "type": "function"
    },
    {
      "inputs": [],
      "name": "mintable",
      "outputs": [
        {
          "internalType": "bool",
          "name": "",
          "type": "bool"
        }
      ],
      "stateMutability": "view",
      "type": "function"
    },
    {
      "inputs": [
        {
          "internalType": "uint256",
          "name": "tokenId",
          "type": "uint256"
        }
      ],
      "name": "mintedTo",
      "outputs": [
        {
          "internalType": "address",
          "name": "",
          "type": "address"
        }
      ],
      "stateMutability": "view",
      "type": "function"
    },
    {
      "inputs": [],
      "name": "name",
      "outputs": [
        {
          "internalType": "string",
          "name": "",
          "type": "string"
        }
      ],
      "stateMutability": "view",
      "type": "function"
    },
    {
      "inputs": [],
      "name": "nextId",
      "outputs": [
        {
          "internalType": "uint256",
          "name": "",
          "type": "uint256"
        }
      ],
      "stateMutability": "view",
      "type": "function"
    },
    {
      "inputs": [
        {
          "internalType": "uint256",
          "name": "tokenId",
          "type": "uint256"
        }
      ],
      "name": "nickNameOf",
      "outputs": [
        {
          "internalType": "string",
          "name": "",
          "type": "string"
        }
      ],
      "stateMutability": "view",
      "type": "function"
    },
    {
      "inputs": [
        {
          "internalType": "address",
          "name": "owner",
          "type": "address"
        }
      ],
      "name": "nonces",
      "outputs": [
        {
          "internalType": "uint256",
          "name": "",
          "type": "uint256"
        }
      ],
      "stateMutability": "view",
      "type": "function"
    },
    {
      "inputs": [],
      "name": "organization",
      "outputs": [
        {
          "internalType": "string",
          "name": "",
          "type": "string"
        }
      ],
      "stateMutability": "view",
      "type": "function"
    },
    {
      "inputs": [
        {
          "internalType": "uint256",
          "name": "tokenId",
          "type": "uint256"
        }
      ],
      "name": "ownerOf",
      "outputs": [
        {
          "internalType": "address",
          "name": "",
          "type": "address"
        }
      ],
      "stateMutability": "view",
      "type": "function"
    },
    {
      "inputs": [],
      "name": "paused",
      "outputs": [
        {
          "internalType": "bool",
          "name": "",
          "type": "bool"
        }
      ],
      "stateMutability": "view",
      "type": "function"
    },
    {
      "inputs": [],
      "name": "proxiableUUID",
      "outputs": [
        {
          "internalType": "bytes32",
          "name": "",
          "type": "bytes32"
        }
      ],
      "stateMutability": "view",
      "type": "function"
    },
    {
      "inputs": [
        {
          "internalType": "bytes32",
          "name": "hash",
          "type": "bytes32"
        },
        {
          "internalType": "bytes",
          "name": "signature",
          "type": "bytes"
        }
      ],
      "name": "recoverSigner",
      "outputs": [
        {
          "internalType": "address",
          "name": "",
          "type": "address"
        }
      ],
      "stateMutability": "pure",
      "type": "function"
    },
    {
      "inputs": [
        {
          "internalType": "bytes32",
          "name": "role",
          "type": "bytes32"
        },
        {
          "internalType": "address",
          "name": "account",
          "type": "address"
        }
      ],
      "name": "renounceRole",
      "outputs": [],
      "stateMutability": "nonpayable",
      "type": "function"
    },
    {
      "inputs": [
        {
          "internalType": "bytes32",
          "name": "role",
          "type": "bytes32"
        },
        {
          "internalType": "address",
          "name": "account",
          "type": "address"
        }
      ],
      "name": "revokeRole",
      "outputs": [],
      "stateMutability": "nonpayable",
      "type": "function"
    },
    {
      "inputs": [
        {
          "internalType": "uint256",
          "name": "tokenId",
          "type": "uint256"
        }
      ],
      "name": "roleOf",
      "outputs": [
        {
          "internalType": "string",
          "name": "",
          "type": "string"
        }
      ],
      "stateMutability": "view",
      "type": "function"
    },
    {
      "inputs": [
        {
          "internalType": "address",
          "name": "from",
          "type": "address"
        },
        {
          "internalType": "address",
          "name": "to",
          "type": "address"
        },
        {
          "internalType": "uint256",
          "name": "tokenId",
          "type": "uint256"
        }
      ],
      "name": "safeTransferFrom",
      "outputs": [],
      "stateMutability": "nonpayable",
      "type": "function"
    },
    {
      "inputs": [
        {
          "internalType": "address",
          "name": "from",
          "type": "address"
        },
        {
          "internalType": "address",
          "name": "to",
          "type": "address"
        },
        {
          "internalType": "uint256",
          "name": "tokenId",
          "type": "uint256"
        },
        {
          "internalType": "bytes",
          "name": "_data",
          "type": "bytes"
        }
      ],
      "name": "safeTransferFrom",
      "outputs": [],
      "stateMutability": "nonpayable",
      "type": "function"
    },
    {
      "inputs": [
        {
          "internalType": "address",
          "name": "operator",
          "type": "address"
        },
        {
          "internalType": "bool",
          "name": "approved",
          "type": "bool"
        }
      ],
      "name": "setApprovalForAll",
      "outputs": [],
      "stateMutability": "nonpayable",
      "type": "function"
    },
    {
      "inputs": [
        {
          "internalType": "string",
          "name": "defaultRole_",
          "type": "string"
        }
      ],
      "name": "setDefaultRole",
      "outputs": [],
      "stateMutability": "nonpayable",
      "type": "function"
    },
    {
      "inputs": [
        {
          "internalType": "uint256",
          "name": "mintPrice_",
          "type": "uint256"
        }
      ],
      "name": "setMintPrice",
      "outputs": [],
      "stateMutability": "nonpayable",
      "type": "function"
    },
    {
      "inputs": [
        {
          "internalType": "string",
          "name": "_svgLogo",
          "type": "string"
        }
      ],
      "name": "setSvgLogo",
      "outputs": [],
      "stateMutability": "nonpayable",
      "type": "function"
    },
    {
      "inputs": [
        {
          "internalType": "bytes4",
          "name": "interfaceId",
          "type": "bytes4"
        }
      ],
      "name": "supportsInterface",
      "outputs": [
        {
          "internalType": "bool",
          "name": "",
          "type": "bool"
        }
      ],
      "stateMutability": "view",
      "type": "function"
    },
    {
      "inputs": [],
      "name": "symbol",
      "outputs": [
        {
          "internalType": "string",
          "name": "",
          "type": "string"
        }
      ],
      "stateMutability": "view",
      "type": "function"
    },
    {
      "inputs": [],
      "name": "toggleMintable",
      "outputs": [
        {
          "internalType": "bool",
          "name": "",
          "type": "bool"
        }
      ],
      "stateMutability": "nonpayable",
      "type": "function"
    },
    {
      "inputs": [],
      "name": "toggleTransferable",
      "outputs": [
        {
          "internalType": "bool",
          "name": "",
          "type": "bool"
        }
      ],
      "stateMutability": "nonpayable",
      "type": "function"
    },
    {
      "inputs": [
        {
          "internalType": "uint256",
          "name": "tokenId",
          "type": "uint256"
        }
      ],
      "name": "tokenDataOf",
      "outputs": [
        {
          "components": [
            {
              "internalType": "uint256",
              "name": "id",
              "type": "uint256"
            },
            {
              "internalType": "address",
              "name": "owner",
              "type": "address"
            },
            {
              "internalType": "address",
              "name": "mintedTo",
              "type": "address"
            },
            {
              "internalType": "string",
              "name": "nickName",
              "type": "string"
            },
            {
              "internalType": "string",
              "name": "role",
              "type": "string"
            },
            {
              "internalType": "string",
              "name": "organization",
              "type": "string"
            },
            {
              "internalType": "string",
              "name": "tokenName",
              "type": "string"
            }
          ],
          "internalType": "struct SoulBoundNFT.TokenData",
          "name": "",
          "type": "tuple"
        }
      ],
      "stateMutability": "view",
      "type": "function"
    },
    {
      "inputs": [
        {
          "internalType": "uint256",
          "name": "tokenId",
          "type": "uint256"
        }
      ],
      "name": "tokenURI",
      "outputs": [
        {
          "internalType": "string",
          "name": "",
          "type": "string"
        }
      ],
      "stateMutability": "view",
      "type": "function"
    },
    {
      "inputs": [
        {
          "internalType": "address",
          "name": "from",
          "type": "address"
        },
        {
          "internalType": "address",
          "name": "to",
          "type": "address"
        },
        {
          "internalType": "uint256",
          "name": "tokenId",
          "type": "uint256"
        }
      ],
      "name": "transferFrom",
      "outputs": [],
      "stateMutability": "nonpayable",
      "type": "function"
    },
    {
      "inputs": [],
      "name": "transferable",
      "outputs": [
        {
          "internalType": "bool",
          "name": "",
          "type": "bool"
        }
      ],
      "stateMutability": "view",
      "type": "function"
    },
    {
      "inputs": [
        {
          "internalType": "address",
          "name": "newImplementation",
          "type": "address"
        }
      ],
      "name": "upgradeTo",
      "outputs": [],
      "stateMutability": "nonpayable",
      "type": "function"
    },
    {
      "inputs": [
        {
          "internalType": "address",
          "name": "newImplementation",
          "type": "address"
        },
        {
          "internalType": "bytes",
          "name": "data",
          "type": "bytes"
        }
      ],
      "name": "upgradeToAndCall",
      "outputs": [],
      "stateMutability": "payable",
      "type": "function"
    },
    {
      "inputs": [],
      "name": "version",
      "outputs": [
        {
          "internalType": "uint256",
          "name": "",
          "type": "uint256"
        }
      ],
      "stateMutability": "pure",
      "type": "function"
    },
    {
      "inputs": [],
      "name": "withdraw",
      "outputs": [],
      "stateMutability": "nonpayable",
      "type": "function"
    },
    {
      "stateMutability": "payable",
      "type": "receive"
    }
  ],
  "transactionHash": "0x461a6e75aa6dd0a2113e9dbb1a845bfe297953b829b428f7c0061e872c5881b0",
  "args": [],
  "numDeployments": 1,
  "solcInputHash": "7b1e1a0d4be5a02498ecb6c452b8ac64",
  "bytecode": "0x60a0604052306080523480156200001557600080fd5b50600054610100900460ff1615808015620000375750600054600160ff909116105b8062000067575062000054306200014160201b620021ad1760201c565b15801562000067575060005460ff166001145b620000cf5760405162461bcd60e51b815260206004820152602e60248201527f496e697469616c697a61626c653a20636f6e747261637420697320616c72656160448201526d191e481a5b9a5d1a585b1a5e995960921b606482015260840160405180910390fd5b6000805460ff191660011790558015620000f3576000805461ff0019166101001790555b80156200013a576000805461ff0019169055604051600181527f7f26b83ff96e1f2b6a682f133852f6798a09c465da95921460cefb38474024989060200160405180910390a15b5062000150565b6001600160a01b03163b151590565b6080516152b46200018860003960008181610e9201528181610ed201528181611170015281816111b0015261123f01526152b46000f3fe60806040526004361061034a5760003560e01c80636817c76c116101b9578063a75d961e116100f6578063d547741f1161009a578063e63ab1e91161006c578063e63ab1e9146109d1578063e985e9c514610a05578063f4a0a52814610a4e578063f72c0d8b14610a6e57005b8063d547741f1461095c578063d6bfc22f1461097c578063dab45bbd14610991578063dc8e92ea146109b157005b8063c0da9bcd116100d3578063c0da9bcd146108cd578063c3cda520146108fa578063c87b56dd1461091a578063d53913931461093a57005b8063a75d961e1461087a578063b88d4fde1461089a578063bf24c95f146108ba57005b806391d148541161015d57806397aba7f91161013a57806397aba7f9146108055780639ab24eb014610825578063a217fddf14610845578063a22cb4651461085a57005b806391d14854146107b757806392ff0d31146107d757806395d89b41146107f057005b8063726b83b611610196578063726b83b61461074257806372b1d8cf146107575780637ecebe00146107775780638e539e8c1461079757005b80636817c76c146106ec5780636c4a41491461070257806370a082311461072257005b80633c683cff1161028757806354fd4d501161022b5780635c19a95c116102085780635c19a95c1461067e5780635c975abb1461069e57806361b8ce8c146106b75780636352211e146106cc57005b806354fd4d5014610611578063587cde1e14610625578063591e40651461065e57005b806342966c681161026457806342966c68146105ab5780634bf365df146105cb5780634f1ef286146105e957806352d1902d146105fc57005b80633c683cff1461053f5780633ccfd60b1461057657806342842e0e1461058b57005b806323bd4d7a116102ee5780633644e515116102cb5780633644e515146104ca57806336568abe146104df5780633659cfe6146104ff5780633a46b1a81461051f57005b806323bd4d7a14610457578063248a9ca31461046c5780632f2ff15d146104aa57005b8063095ea7b311610327578063095ea7b3146103e257806314afba3b146104025780631620245d1461041757806323b872dd1461043757005b806301ffc9a71461035357806306fdde0314610388578063081812fc146103aa57005b3661035157005b005b34801561035f57600080fd5b5061037361036e366004614035565b610aa2565b60405190151581526020015b60405180910390f35b34801561039457600080fd5b5061039d610ab3565b60405161037f91906140aa565b3480156103b657600080fd5b506103ca6103c53660046140bd565b610b45565b6040516001600160a01b03909116815260200161037f565b3480156103ee57600080fd5b506103516103fd3660046140f2565b610b6c565b34801561040e57600080fd5b5061039d610cb2565b34801561042357600080fd5b5061039d6104323660046140bd565b610cc2565b34801561044357600080fd5b5061035161045236600461411c565b610d65565b34801561046357600080fd5b5061039d610dc6565b34801561047857600080fd5b5061049c6104873660046140bd565b60009081526065602052604090206001015490565b60405190815260200161037f565b3480156104b657600080fd5b506103516104c5366004614158565b610dd6565b3480156104d657600080fd5b5061049c610dfb565b3480156104eb57600080fd5b506103516104fa366004614158565b610e0a565b34801561050b57600080fd5b5061035161051a366004614184565b610e88565b34801561052b57600080fd5b5061049c61053a3660046140f2565b610f67565b34801561054b57600080fd5b506103ca61055a3660046140bd565b600090815261023260205260409020546001600160a01b031690565b34801561058257600080fd5b50610351610f90565b34801561059757600080fd5b506103516105a636600461411c565b61106f565b3480156105b757600080fd5b506103516105c63660046140bd565b61108a565b3480156105d757600080fd5b5061022d54610100900460ff16610373565b6103516105f7366004614241565b611166565b34801561060857600080fd5b5061049c611232565b34801561061d57600080fd5b50600161049c565b34801561063157600080fd5b506103ca610640366004614184565b6001600160a01b03908116600090815260fd60205260409020541690565b34801561066a57600080fd5b5061035161067936600461429e565b6112e5565b34801561068a57600080fd5b50610351610699366004614184565b61151a565b3480156106aa57600080fd5b506101935460ff16610373565b3480156106c357600080fd5b5061049c611525565b3480156106d857600080fd5b506103ca6106e73660046140bd565b611531565b3480156106f857600080fd5b5061022e5461049c565b34801561070e57600080fd5b5061035161071d366004614386565b611591565b34801561072e57600080fd5b5061049c61073d366004614184565b6115bd565b34801561074e57600080fd5b50610373611643565b34801561076357600080fd5b5061039d6107723660046140bd565b6116e4565b34801561078357600080fd5b5061049c610792366004614184565b611705565b3480156107a357600080fd5b5061049c6107b23660046140bd565b611724565b3480156107c357600080fd5b506103736107d2366004614158565b611780565b3480156107e357600080fd5b5061022d5460ff16610373565b3480156107fc57600080fd5b5061039d6117ab565b34801561081157600080fd5b506103ca6108203660046143ba565b6117ba565b34801561083157600080fd5b5061049c610840366004614184565b61181c565b34801561085157600080fd5b5061049c600081565b34801561086657600080fd5b506103516108753660046143ea565b61183d565b34801561088657600080fd5b50610351610895366004614455565b611848565b3480156108a657600080fd5b506103516108b5366004614496565b611873565b6103516108c83660046144fd565b6118d5565b3480156108d957600080fd5b506108ed6108e83660046140bd565b611be5565b60405161037f91906145aa565b34801561090657600080fd5b50610351610915366004614657565b611cc9565b34801561092657600080fd5b5061039d6109353660046140bd565b611ded565b34801561094657600080fd5b5061049c60008051602061525f83398151915281565b34801561096857600080fd5b50610351610977366004614158565b611e9e565b34801561098857600080fd5b50610373611ec3565b34801561099d57600080fd5b506103516109ac3660046146fb565b611f63565b3480156109bd57600080fd5b506103516109cc366004614794565b6120cb565b3480156109dd57600080fd5b5061049c7f65d7a28e3265b37a6474929f336521b332c1681b933f6cb9f3376673440d862a81565b348015610a1157600080fd5b50610373610a203660046147c9565b6001600160a01b039182166000908152609c6020908152604080832093909416825291909152205460ff1690565b348015610a5a57600080fd5b50610351610a693660046140bd565b61218e565b348015610a7a57600080fd5b5061049c7f189ab7a9244df0848122154315af71fe140f3db0fe014031783b0946b8c9d2e381565b6000610aad826121bc565b92915050565b606060978054610ac2906147f3565b80601f0160208091040260200160405190810160405280929190818152602001828054610aee906147f3565b8015610b3b5780601f10610b1057610100808354040283529160200191610b3b565b820191906000526020600020905b815481529060010190602001808311610b1e57829003601f168201915b5050505050905090565b6000610b50826121fc565b506000908152609b60205260409020546001600160a01b031690565b61022d5460ff161515600114610b9d5760405162461bcd60e51b8152600401610b9490614827565b60405180910390fd5b6000610ba882611531565b9050806001600160a01b0316836001600160a01b031603610c155760405162461bcd60e51b815260206004820152602160248201527f4552433732313a20617070726f76616c20746f2063757272656e74206f776e656044820152603960f91b6064820152608401610b94565b336001600160a01b0382161480610c315750610c318133610a20565b610ca35760405162461bcd60e51b815260206004820152603860248201527f4552433732313a20617070726f76652063616c6c6572206973206e6f74206f7760448201527f6e6572206e6f7220617070726f76656420666f7220616c6c00000000000000006064820152608401610b94565b610cad838361224c565b505050565b606061022c8054610ac2906147f3565b600081815261023160205260409020805460609190610ce0906147f3565b80601f0160208091040260200160405190810160405280929190818152602001828054610d0c906147f3565b8015610d595780601f10610d2e57610100808354040283529160200191610d59565b820191906000526020600020905b815481529060010190602001808311610d3c57829003601f168201915b50505050509050919050565b61022d5460ff161515600114610d8d5760405162461bcd60e51b8152600401610b9490614827565b610d956122ba565b610d9f3382612303565b610dbb5760405162461bcd60e51b8152600401610b949061485e565b610cad838383612381565b606061022b8054610ac2906147f3565b600082815260656020526040902060010154610df181612523565b610cad838361252d565b6000610e056125b3565b905090565b6001600160a01b0381163314610e7a5760405162461bcd60e51b815260206004820152602f60248201527f416363657373436f6e74726f6c3a2063616e206f6e6c792072656e6f756e636560448201526e103937b632b9903337b91039b2b63360891b6064820152608401610b94565b610e84828261262e565b5050565b6001600160a01b037f0000000000000000000000000000000000000000000000000000000000000000163003610ed05760405162461bcd60e51b8152600401610b94906148af565b7f00000000000000000000000000000000000000000000000000000000000000006001600160a01b0316610f196000805160206151d8833981519152546001600160a01b031690565b6001600160a01b031614610f3f5760405162461bcd60e51b8152600401610b94906148fb565b610f4881612695565b60408051600080825260208201909252610f6491839190612702565b50565b6001600160a01b038216600090815260fe60205260408120610f89908361286d565b9392505050565b6000610f9d606447614973565b610fa8906001614987565b61022a546040519192506000916001600160a01b039091169083908381818185875af1925050503d8060008114610ffb576040519150601f19603f3d011682016040523d82523d6000602084013e611000565b606091505b505090508061100e57600080fd5b61022f546040516000916001600160a01b03169047908381818185875af1925050503d806000811461105c576040519150601f19603f3d011682016040523d82523d6000602084013e611061565b606091505b5050905080610cad57600080fd5b610cad83838360405180602001604052806000815250611873565b806110948161297c565b6110b05760405162461bcd60e51b8152600401610b94906149a6565b816110ba8161297c565b6110d65760405162461bcd60e51b8152600401610b94906149a6565b6110df81611531565b6001600160a01b0316336001600160a01b03161480611111575061111160008051602061525f83398151915233611780565b61115d5760405162461bcd60e51b815260206004820152601f60248201527f73656e646572206e6f74206f776e6572206f7220746f6b656e206f776e6572006044820152606401610b94565b610cad83612999565b6001600160a01b037f00000000000000000000000000000000000000000000000000000000000000001630036111ae5760405162461bcd60e51b8152600401610b94906148af565b7f00000000000000000000000000000000000000000000000000000000000000006001600160a01b03166111f76000805160206151d8833981519152546001600160a01b031690565b6001600160a01b03161461121d5760405162461bcd60e51b8152600401610b94906148fb565b61122682612695565b610e8482826001612702565b6000306001600160a01b037f000000000000000000000000000000000000000000000000000000000000000016146112d25760405162461bcd60e51b815260206004820152603860248201527f555550535570677261646561626c653a206d757374206e6f742062652063616c60448201527f6c6564207468726f7567682064656c656761746563616c6c00000000000000006064820152608401610b94565b506000805160206151d883398151915290565b600054610100900460ff16158080156113055750600054600160ff909116105b8061131f5750303b15801561131f575060005460ff166001145b6113825760405162461bcd60e51b815260206004820152602e60248201527f496e697469616c697a61626c653a20636f6e747261637420697320616c72656160448201526d191e481a5b9a5d1a585b1a5e995960921b6064820152608401610b94565b6000805460ff1916600117905580156113a5576000805461ff0019166101001790555b6113af8989612a3c565b6113b7612a6d565b61022a80546001600160a01b03191673f4553cde05fa9fc35f8f1b860bac7fa15777938217905586516113f29061022b9060208a0190613f16565b5085516114079061022c906020890190613f16565b5061022d805461ffff191686151561ff001916176101008615150217905561022e83905561022f80546001600160a01b0319166001600160a01b03841617905561145260003361252d565b61147c7f189ab7a9244df0848122154315af71fe140f3db0fe014031783b0946b8c9d2e33361252d565b61148760008361252d565b6114b17f65d7a28e3265b37a6474929f336521b332c1681b933f6cb9f3376673440d862a8361252d565b6114c960008051602061525f8339815191528361252d565b801561150f576000805461ff0019169055604051600181527f7f26b83ff96e1f2b6a682f133852f6798a09c465da95921460cefb38474024989060200160405180910390a15b505050505050505050565b33610e848183612a94565b6000610e056102295490565b6000818152609960205260408120546001600160a01b031680610aad5760405162461bcd60e51b8152602060048201526018602482015277115490cdcc8c4e881a5b9d985b1a59081d1bdad95b88125160421b6044820152606401610b94565b60008051602061525f8339815191526115a981612523565b8151610cad9061022c906020850190613f16565b60006001600160a01b0382166116275760405162461bcd60e51b815260206004820152602960248201527f4552433732313a2061646472657373207a65726f206973206e6f7420612076616044820152683634b21037bbb732b960b91b6064820152608401610b94565b506001600160a01b03166000908152609a602052604090205490565b600060008051602061525f83398151915261165d81612523565b61022d54610100900460ff161561167f5761022d805461ff0019169055611690565b61022d805461ff0019166101001790555b61022d5460405161010090910460ff16151581527f53cd659204fadcb4e69b0dcc6bbe24499267a1adef5c9e89926f5b4e1973ee679060200160405180910390a161022d54610100900460ff1691505b5090565b600081815261023160205260409020600101805460609190610ce0906147f3565b6001600160a01b03811660009081526101006020526040812054610aad565b60004382106117755760405162461bcd60e51b815260206004820152601a60248201527f566f7465733a20626c6f636b206e6f7420796574206d696e65640000000000006044820152606401610b94565b610aad60ff8361286d565b60009182526065602090815260408084206001600160a01b0393909316845291905290205460ff1690565b606060988054610ac2906147f3565b6040517f19457468657265756d205369676e6564204d6573736167653a0a3332000000006020820152603c81018390526000908190605c016040516020818303038152906040528051906020012090506118148184612b06565b949350505050565b6001600160a01b038116600090815260fe60205260408120610aad90612b2a565b610e84338383612b86565b60008051602061525f83398151915261186081612523565b61186d6102308484613f96565b50505050565b61022d5460ff16151560011461189b5760405162461bcd60e51b8152600401610b9490614827565b6118a36122ba565b6118ad3383612303565b6118c95760405162461bcd60e51b8152600401610b949061485e565b61186d84848484612c54565b6118dd6122ba565b61022d54610100900460ff16801561190a575061190860008051602061525f83398151915233611780565b155b15611af95761022f546001600160a01b031661192683836117ba565b6001600160a01b03161461197c5760405162461bcd60e51b815260206004820152601a60248201527f41646472657373206973206e6f7420616c6c6f776c69737465640000000000006044820152606401610b94565b6001611987886115bd565b11156119ca5760405162461bcd60e51b815260206004820152601260248201527143616e204d696e74206f6e6c79204f6e636560701b6044820152606401610b94565b61022e54341015611a275760405162461bcd60e51b815260206004820152602160248201527f536f756c426f756e644e46543a20696e73756666696369656e742066756e64736044820152602160f81b6064820152608401610b94565b611af48787878080601f0160208091040260200160405190810160405280939291908181526020018383808284376000920191909152505061022c8054909250611a7191506147f3565b80601f0160208091040260200160405190810160405280929190818152602001828054611a9d906147f3565b8015611aea5780601f10611abf57610100808354040283529160200191611aea565b820191906000526020600020905b815481529060010190602001808311611acd57829003601f168201915b5050505050612c87565b611bdc565b611b1160008051602061525f83398151915233611780565b611b685760405162461bcd60e51b815260206004820152602260248201527f536f756c426f756e644e46543a206e6f7420616c6c6f77656420746f206d696e604482015261742160f01b6064820152608401610b94565b611bdc8787878080601f01602080910402602001604051908101604052809392919081815260200183838082843760009201919091525050604080516020601f8b018190048102820181019092528981529250899150889081908401838280828437600092019190915250612c8792505050565b50505050505050565b611c376040518060e001604052806000815260200160006001600160a01b0316815260200160006001600160a01b03168152602001606081526020016060815260200160608152602001606081525090565b60006040518060e00160405280848152602001611c5385611531565b6001600160a01b03168152602001611c8185600090815261023260205260409020546001600160a01b031690565b6001600160a01b03168152602001611c9885610cc2565b8152602001611ca6856116e4565b8152602001611cb3610dc6565b8152602001611cc0610ab3565b90529392505050565b83421115611d195760405162461bcd60e51b815260206004820152601860248201527f566f7465733a207369676e6174757265206578706972656400000000000000006044820152606401610b94565b604080517fe48329057bfd03d55e49b547132e39cffd9c1820ad7b9d4c5307691425d15adf60208201526001600160a01b038816918101919091526060810186905260808101859052600090611d9390611d8b9060a00160405160208183030381529060405280519060200120612d29565b858585612d77565b9050611d9e81612d9f565b8614611de35760405162461bcd60e51b8152602060048201526014602482015273566f7465733a20696e76616c6964206e6f6e636560601b6044820152606401610b94565b611bdc8188612a94565b606081611df98161297c565b611e155760405162461bcd60e51b8152600401610b94906149a6565b60006040518060c00160405280858152602001611e4886600090815261023260205260409020546001600160a01b031690565b6001600160a01b03168152602001611e5f86610cc2565b8152602001611e6d866116e4565b8152602001611e7a610dc6565b8152602001611e87610ab3565b90529050611e9481612dc6565b9250505b50919050565b600082815260656020526040902060010154611eb981612523565b610cad838361262e565b60007f65d7a28e3265b37a6474929f336521b332c1681b933f6cb9f3376673440d862a611eef81612523565b61022d5460ff1615611f0b5761022d805460ff19169055611f1a565b61022d805460ff191660011790555b61022d5460405160ff909116151581527f40cec7445e6af82a2c1482720f9cde27ef6cc85136e8b7abd3efd8c6a0ee566f9060200160405180910390a1505061022d5460ff1690565b60008051602061525f833981519152611f7b81612523565b611f836122ba565b858414611fa25760405162461bcd60e51b8152600401610b94906149eb565b858214611fc15760405162461bcd60e51b8152600401610b94906149eb565b60005b868110156120c1576120af888883818110611fe157611fe1614a2e565b9050602002016020810190611ff69190614184565b87878481811061200857612008614a2e565b905060200281019061201a9190614a44565b8080601f01602080910402602001604051908101604052809392919081815260200183838082843760009201919091525089925088915086905081811061206357612063614a2e565b90506020028101906120759190614a44565b8080601f016020809104026020016040519081016040528093929190818152602001838380828437600092019190915250612c8792505050565b806120b981614a8a565b915050611fc4565b5050505050505050565b60008051602061525f8339815191526120e381612523565b60005b8281101561186d5761210f84848381811061210357612103614a2e565b9050602002013561297c565b61215b5760405162461bcd60e51b815260206004820181905260248201527f536f756c426f756e644e46543a204e6f6e2d6578697374656e7420746f6b656e6044820152606401610b94565b61217c84848381811061217057612170614a2e565b9050602002013561108a565b8061218681614a8a565b9150506120e6565b60008051602061525f8339815191526121a681612523565b5061022e55565b6001600160a01b03163b151590565b60006001600160e01b031982166380ac58cd60e01b14806121ed57506001600160e01b03198216635b5e139f60e01b145b80610aad5750610aad82612e76565b6122058161297c565b610f645760405162461bcd60e51b8152602060048201526018602482015277115490cdcc8c4e881a5b9d985b1a59081d1bdad95b88125160421b6044820152606401610b94565b6000818152609b6020526040902080546001600160a01b0319166001600160a01b038416908117909155819061228182611531565b6001600160a01b03167f8c5be1e5ebec7d5bd14f71427d1e84f3dd0314c0f7b2291e5b200ac8c7c3b92560405160405180910390a45050565b6101935460ff16156123015760405162461bcd60e51b815260206004820152601060248201526f14185d5cd8589b194e881c185d5cd95960821b6044820152606401610b94565b565b60008061230f83611531565b9050806001600160a01b0316846001600160a01b0316148061235657506001600160a01b038082166000908152609c602090815260408083209388168352929052205460ff165b806118145750836001600160a01b031661236f84610b45565b6001600160a01b031614949350505050565b826001600160a01b031661239482611531565b6001600160a01b0316146123f85760405162461bcd60e51b815260206004820152602560248201527f4552433732313a207472616e736665722066726f6d20696e636f72726563742060448201526437bbb732b960d91b6064820152608401610b94565b6001600160a01b03821661245a5760405162461bcd60e51b8152602060048201526024808201527f4552433732313a207472616e7366657220746f20746865207a65726f206164646044820152637265737360e01b6064820152608401610b94565b61246560008261224c565b6001600160a01b0383166000908152609a6020526040812080546001929061248e908490614aa3565b90915550506001600160a01b0382166000908152609a602052604081208054600192906124bc908490614aba565b909155505060008181526099602052604080822080546001600160a01b0319166001600160a01b0386811691821790925591518493918716917fddf252ad1be2c89b69c2b068fc378daa952ba7f163c4a11628f55a4df523b3ef91a4610cad838383612eab565b610f648133612ec2565b6125378282611780565b610e845760008281526065602090815260408083206001600160a01b03851684529091529020805460ff1916600117905561256f3390565b6001600160a01b0316816001600160a01b0316837f2f8788117e7eff1d82e926ec794901d17c78024a50270940304540a733656f0d60405160405180910390a45050565b6000610e057f8b73c3c69bb8fe3d512ecc4cf759cc79239f7b179b0ffacaa9a75d522b39400f6125e260c95490565b60ca546040805160208101859052908101839052606081018290524660808201523060a082015260009060c0016040516020818303038152906040528051906020012090509392505050565b6126388282611780565b15610e845760008281526065602090815260408083206001600160a01b0385168085529252808320805460ff1916905551339285917ff6391f5c32d9c69d2a47ea670b442974b53935d1edc7fd64eb21e047a839171b9190a45050565b6126bf7f189ab7a9244df0848122154315af71fe140f3db0fe014031783b0946b8c9d2e333611780565b610f645760405162461bcd60e51b8152602060048201526014602482015273556e617574686f72697a6564205570677261646560601b6044820152606401610b94565b7f4910fdfa16fed3260ed0e7147f7cc6da11a60208b5b9406d12a635614ffd91435460ff161561273557610cad83612f26565b826001600160a01b03166352d1902d6040518163ffffffff1660e01b8152600401602060405180830381865afa92505050801561278f575060408051601f3d908101601f1916820190925261278c91810190614ad2565b60015b6127f25760405162461bcd60e51b815260206004820152602e60248201527f45524331393637557067726164653a206e657720696d706c656d656e7461746960448201526d6f6e206973206e6f74205555505360901b6064820152608401610b94565b6000805160206151d883398151915281146128615760405162461bcd60e51b815260206004820152602960248201527f45524331393637557067726164653a20756e737570706f727465642070726f786044820152681a58589b195555525160ba1b6064820152608401610b94565b50610cad838383612fc2565b60004382106128be5760405162461bcd60e51b815260206004820181905260248201527f436865636b706f696e74733a20626c6f636b206e6f7420796574206d696e65646044820152606401610b94565b825460005b818110156129235760006128d78284612fe7565b9050848660000182815481106128ef576128ef614a2e565b60009182526020909120015463ffffffff16111561290f5780925061291d565b61291a816001614aba565b91505b506128c3565b81156129675784612935600184614aa3565b8154811061294557612945614a2e565b60009182526020909120015464010000000090046001600160e01b031661296a565b60005b6001600160e01b031695945050505050565b6000908152609960205260409020546001600160a01b0316151590565b60006129a482611531565b90506129b160008361224c565b6001600160a01b0381166000908152609a602052604081208054600192906129da908490614aa3565b909155505060008281526099602052604080822080546001600160a01b0319169055518391906001600160a01b038416907fddf252ad1be2c89b69c2b068fc378daa952ba7f163c4a11628f55a4df523b3ef908390a4610e8481600084612eab565b600054610100900460ff16612a635760405162461bcd60e51b8152600401610b9490614aeb565b610e848282613002565b600054610100900460ff166123015760405162461bcd60e51b8152600401610b9490614aeb565b6001600160a01b03828116600081815260fd602052604080822080548686166001600160a01b0319821681179092559151919094169392849290917f3134e8a2e6d97e929a7e54011ea5485d7d196dd5f0ba4d4ef95803e8e3fc257f9190a4610cad8183612b0186613050565b61305b565b6000806000612b158585613198565b91509150612b22816131dd565b509392505050565b80546000908015612b735782612b41600183614aa3565b81548110612b5157612b51614a2e565b60009182526020909120015464010000000090046001600160e01b0316612b76565b60005b6001600160e01b03169392505050565b816001600160a01b0316836001600160a01b031603612be75760405162461bcd60e51b815260206004820152601960248201527f4552433732313a20617070726f766520746f2063616c6c6572000000000000006044820152606401610b94565b6001600160a01b038381166000818152609c6020908152604080832094871680845294825291829020805460ff191686151590811790915591519182527f17307eab39ab6107e8899845ad3d59bd9653f200f220920489ca2b5937696c31910160405180910390a3505050565b612c5f848484612381565b612c6b84848484613393565b61186d5760405162461bcd60e51b8152600401610b9490614b36565b612c8f6122ba565b6000612c9b6102295490565b6000818152610231602090815260409091208551929350612cc0929091860190613f16565b506000818152610231602090815260409091208351612ce792600190920191850190613f16565b5060008181526102326020526040902080546001600160a01b0319166001600160a01b038616179055612d1a8482613491565b61186d61022980546001019055565b6000610aad612d366125b3565b8360405161190160f01b6020820152602281018390526042810182905260009060620160405160208183030381529060405280519060200120905092915050565b6000806000612d88878787876134ab565b91509150612d95816131dd565b5095945050505050565b6001600160a01b038116600090815261010060205260409020805460018101825590611e98565b60606000612e046102308460400151856060015161022b604051602001612df09493929190614c3d565b604051602081830303815290604052613598565b90506000612e1584600001516136ea565b6040808601516060870151608088015160a08901519351612e3c9594908890602001614f14565b604051602081830303815290604052905080604051602001612e5e9190615066565b60405160208183030381529060405292505050919050565b60006001600160e01b03198216637965db0b60e01b1480610aad57506301ffc9a760e01b6001600160e01b0319831614610aad565b612eb7838360016137ea565b610cad83838361385a565b612ecc8282611780565b610e8457612ee4816001600160a01b03166014613866565b612eef836020613866565b604051602001612f009291906150ab565b60408051601f198184030181529082905262461bcd60e51b8252610b94916004016140aa565b6001600160a01b0381163b612f935760405162461bcd60e51b815260206004820152602d60248201527f455243313936373a206e657720696d706c656d656e746174696f6e206973206e60448201526c1bdd08184818dbdb9d1c9858dd609a1b6064820152608401610b94565b6000805160206151d883398151915280546001600160a01b0319166001600160a01b0392909216919091179055565b612fcb83613a01565b600082511180612fd85750805b15610cad5761186d8383613a41565b6000612ff66002848418614973565b610f8990848416614aba565b600054610100900460ff166130295760405162461bcd60e51b8152600401610b9490614aeb565b815161303c906097906020850190613f16565b508051610cad906098906020840190613f16565b6000610aad826115bd565b816001600160a01b0316836001600160a01b03161415801561307d5750600081115b15610cad576001600160a01b0383161561310b576001600160a01b038316600090815260fe6020526040812081906130b890613b3585613b41565b91509150846001600160a01b03167fdec2bacdd2f05b59de34da9b523dff8be42e5e38e818c82fdb0bae774387a7248383604051613100929190918252602082015260400190565b60405180910390a250505b6001600160a01b03821615610cad576001600160a01b038216600090815260fe60205260408120819061314190613b6f85613b41565b91509150836001600160a01b03167fdec2bacdd2f05b59de34da9b523dff8be42e5e38e818c82fdb0bae774387a7248383604051613189929190918252602082015260400190565b60405180910390a25050505050565b60008082516041036131ce5760208301516040840151606085015160001a6131c2878285856134ab565b945094505050506131d6565b506000905060025b9250929050565b60008160048111156131f1576131f1615120565b036131f95750565b600181600481111561320d5761320d615120565b0361325a5760405162461bcd60e51b815260206004820152601860248201527f45434453413a20696e76616c6964207369676e617475726500000000000000006044820152606401610b94565b600281600481111561326e5761326e615120565b036132bb5760405162461bcd60e51b815260206004820152601f60248201527f45434453413a20696e76616c6964207369676e6174757265206c656e677468006044820152606401610b94565b60038160048111156132cf576132cf615120565b036133275760405162461bcd60e51b815260206004820152602260248201527f45434453413a20696e76616c6964207369676e6174757265202773272076616c604482015261756560f01b6064820152608401610b94565b600481600481111561333b5761333b615120565b03610f645760405162461bcd60e51b815260206004820152602260248201527f45434453413a20696e76616c6964207369676e6174757265202776272076616c604482015261756560f01b6064820152608401610b94565b60006001600160a01b0384163b1561348957604051630a85bd0160e11b81526001600160a01b0385169063150b7a02906133d7903390899088908890600401615136565b6020604051808303816000875af1925050508015613412575060408051601f3d908101601f1916820190925261340f91810190615173565b60015b61346f573d808015613440576040519150601f19603f3d011682016040523d82523d6000602084013e613445565b606091505b5080516000036134675760405162461bcd60e51b8152600401610b9490614b36565b805181602001fd5b6001600160e01b031916630a85bd0160e11b149050611814565b506001611814565b610e84828260405180602001604052806000815250613b7b565b6000807f7fffffffffffffffffffffffffffffff5d576e7357a4501ddfe92f46681b20a08311156134e2575060009050600361358f565b8460ff16601b141580156134fa57508460ff16601c14155b1561350b575060009050600461358f565b6040805160008082526020820180845289905260ff881692820192909252606081018690526080810185905260019060a0016020604051602081039080840390855afa15801561355f573d6000803e3d6000fd5b5050604051601f1901519150506001600160a01b0381166135885760006001925092505061358f565b9150600090505b94509492505050565b606081516000036135b757505060408051602081019091526000815290565b60006040518060600160405280604081526020016151f860409139905060006003845160026135e69190614aba565b6135f09190614973565b6135fb906004614987565b6001600160401b038111156136125761361261419f565b6040519080825280601f01601f19166020018201604052801561363c576020820181803683370190505b509050600182016020820185865187015b808210156136a8576003820191508151603f8160121c168501518453600184019350603f81600c1c168501518453600184019350603f8160061c168501518453600184019350603f811685015184535060018301925061364d565b50506003865106600181146136c457600281146136d7576136df565b603d6001830353603d60028303536136df565b603d60018303535b509195945050505050565b6060816000036137115750506040805180820190915260018152600360fc1b602082015290565b8160005b811561373b578061372581614a8a565b91506137349050600a83614973565b9150613715565b6000816001600160401b038111156137555761375561419f565b6040519080825280601f01601f19166020018201604052801561377f576020820181803683370190505b5090505b841561181457613794600183614aa3565b91506137a1600a86615190565b6137ac906030614aba565b60f81b8183815181106137c1576137c1614a2e565b60200101906001600160f81b031916908160001a9053506137e3600a86614973565b9450613783565b6001600160a01b0383166138095761380660ff613b6f83613b41565b50505b6001600160a01b0382166138285761382560ff613b3583613b41565b50505b6001600160a01b03838116600090815260fd6020526040808220548584168352912054610cad9291821691168361305b565b610cad838360016137ea565b60606000613875836002614987565b613880906002614aba565b6001600160401b038111156138975761389761419f565b6040519080825280601f01601f1916602001820160405280156138c1576020820181803683370190505b509050600360fc1b816000815181106138dc576138dc614a2e565b60200101906001600160f81b031916908160001a905350600f60fb1b8160018151811061390b5761390b614a2e565b60200101906001600160f81b031916908160001a905350600061392f846002614987565b61393a906001614aba565b90505b60018111156139b2576f181899199a1a9b1b9c1cb0b131b232b360811b85600f166010811061396e5761396e614a2e565b1a60f81b82828151811061398457613984614a2e565b60200101906001600160f81b031916908160001a90535060049490941c936139ab816151a4565b905061393d565b508315610f895760405162461bcd60e51b815260206004820181905260248201527f537472696e67733a20686578206c656e67746820696e73756666696369656e746044820152606401610b94565b613a0a81612f26565b6040516001600160a01b038216907fbc7cd75a20ee27fd9adebab32041f755214dbc6bffa90cc0225b39da2e5c2d3b90600090a250565b60606001600160a01b0383163b613aa95760405162461bcd60e51b815260206004820152602660248201527f416464726573733a2064656c65676174652063616c6c20746f206e6f6e2d636f6044820152651b9d1c9858dd60d21b6064820152608401610b94565b600080846001600160a01b031684604051613ac491906151bb565b600060405180830381855af49150503d8060008114613aff576040519150601f19603f3d011682016040523d82523d6000602084013e613b04565b606091505b5091509150613b2c828260405180606001604052806027815260200161523860279139613bae565b95945050505050565b6000610f898284614aa3565b600080613b6385613b5e613b5488612b2a565b868863ffffffff16565b613be7565b91509150935093915050565b6000610f898284614aba565b613b858383613d0d565b613b926000848484613393565b610cad5760405162461bcd60e51b8152600401610b9490614b36565b60608315613bbd575081610f89565b825115613bcd5782518084602001fd5b8160405162461bcd60e51b8152600401610b9491906140aa565b8154600090819081613bf886612b2a565b9050600082118015613c3657504386613c12600185614aa3565b81548110613c2257613c22614a2e565b60009182526020909120015463ffffffff16145b15613c9657613c4485613e48565b86613c50600185614aa3565b81548110613c6057613c60614a2e565b9060005260206000200160000160046101000a8154816001600160e01b0302191690836001600160e01b03160217905550613d04565b856000016040518060400160405280613cae43613eb1565b63ffffffff168152602001613cc288613e48565b6001600160e01b0390811690915282546001810184556000938452602093849020835194909301519091166401000000000263ffffffff909316929092179101555b95939450505050565b6001600160a01b038216613d635760405162461bcd60e51b815260206004820181905260248201527f4552433732313a206d696e7420746f20746865207a65726f20616464726573736044820152606401610b94565b613d6c8161297c565b15613db95760405162461bcd60e51b815260206004820152601c60248201527f4552433732313a20746f6b656e20616c7265616479206d696e746564000000006044820152606401610b94565b6001600160a01b0382166000908152609a60205260408120805460019290613de2908490614aba565b909155505060008181526099602052604080822080546001600160a01b0319166001600160a01b03861690811790915590518392907fddf252ad1be2c89b69c2b068fc378daa952ba7f163c4a11628f55a4df523b3ef908290a4610e8460008383612eab565b60006001600160e01b038211156116e05760405162461bcd60e51b815260206004820152602760248201527f53616665436173743a2076616c756520646f65736e27742066697420696e20326044820152663234206269747360c81b6064820152608401610b94565b600063ffffffff8211156116e05760405162461bcd60e51b815260206004820152602660248201527f53616665436173743a2076616c756520646f65736e27742066697420696e203360448201526532206269747360d01b6064820152608401610b94565b828054613f22906147f3565b90600052602060002090601f016020900481019282613f445760008555613f8a565b82601f10613f5d57805160ff1916838001178555613f8a565b82800160010185558215613f8a579182015b82811115613f8a578251825591602001919060010190613f6f565b506116e092915061400a565b828054613fa2906147f3565b90600052602060002090601f016020900481019282613fc45760008555613f8a565b82601f10613fdd5782800160ff19823516178555613f8a565b82800160010185558215613f8a579182015b82811115613f8a578235825591602001919060010190613fef565b5b808211156116e0576000815560010161400b565b6001600160e01b031981168114610f6457600080fd5b60006020828403121561404757600080fd5b8135610f898161401f565b60005b8381101561406d578181015183820152602001614055565b8381111561186d5750506000910152565b60008151808452614096816020860160208601614052565b601f01601f19169290920160200192915050565b602081526000610f89602083018461407e565b6000602082840312156140cf57600080fd5b5035919050565b80356001600160a01b03811681146140ed57600080fd5b919050565b6000806040838503121561410557600080fd5b61410e836140d6565b946020939093013593505050565b60008060006060848603121561413157600080fd5b61413a846140d6565b9250614148602085016140d6565b9150604084013590509250925092565b6000806040838503121561416b57600080fd5b8235915061417b602084016140d6565b90509250929050565b60006020828403121561419657600080fd5b610f89826140d6565b634e487b7160e01b600052604160045260246000fd5b600082601f8301126141c657600080fd5b81356001600160401b03808211156141e0576141e061419f565b604051601f8301601f19908116603f011681019082821181831017156142085761420861419f565b8160405283815286602085880101111561422157600080fd5b836020870160208301376000602085830101528094505050505092915050565b6000806040838503121561425457600080fd5b61425d836140d6565b915060208301356001600160401b0381111561427857600080fd5b614284858286016141b5565b9150509250929050565b803580151581146140ed57600080fd5b600080600080600080600080610100898b0312156142bb57600080fd5b88356001600160401b03808211156142d257600080fd5b6142de8c838d016141b5565b995060208b01359150808211156142f457600080fd5b6143008c838d016141b5565b985060408b013591508082111561431657600080fd5b6143228c838d016141b5565b975060608b013591508082111561433857600080fd5b506143458b828c016141b5565b95505061435460808a0161428e565b935061436260a08a0161428e565b925060c0890135915061437760e08a016140d6565b90509295985092959890939650565b60006020828403121561439857600080fd5b81356001600160401b038111156143ae57600080fd5b611814848285016141b5565b600080604083850312156143cd57600080fd5b8235915060208301356001600160401b0381111561427857600080fd5b600080604083850312156143fd57600080fd5b614406836140d6565b915061417b6020840161428e565b60008083601f84011261442657600080fd5b5081356001600160401b0381111561443d57600080fd5b6020830191508360208285010111156131d657600080fd5b6000806020838503121561446857600080fd5b82356001600160401b0381111561447e57600080fd5b61448a85828601614414565b90969095509350505050565b600080600080608085870312156144ac57600080fd5b6144b5856140d6565b93506144c3602086016140d6565b92506040850135915060608501356001600160401b038111156144e557600080fd5b6144f1878288016141b5565b91505092959194509250565b600080600080600080600060a0888a03121561451857600080fd5b614521886140d6565b965060208801356001600160401b038082111561453d57600080fd5b6145498b838c01614414565b909850965060408a013591508082111561456257600080fd5b61456e8b838c01614414565b909650945060608a0135935060808a013591508082111561458e57600080fd5b5061459b8a828b016141b5565b91505092959891949750929550565b602081528151602082015260018060a01b036020830151166040820152600060408301516145e360608401826001600160a01b03169052565b50606083015160e060808401526145fe61010084018261407e565b90506080840151601f19808584030160a086015261461c838361407e565b925060a08601519150808584030160c0860152614639838361407e565b925060c08601519150808584030160e086015250613b2c828261407e565b60008060008060008060c0878903121561467057600080fd5b614679876140d6565b95506020870135945060408701359350606087013560ff8116811461469d57600080fd5b9598949750929560808101359460a0909101359350915050565b60008083601f8401126146c957600080fd5b5081356001600160401b038111156146e057600080fd5b6020830191508360208260051b85010111156131d657600080fd5b6000806000806000806060878903121561471457600080fd5b86356001600160401b038082111561472b57600080fd5b6147378a838b016146b7565b9098509650602089013591508082111561475057600080fd5b61475c8a838b016146b7565b9096509450604089013591508082111561477557600080fd5b5061478289828a016146b7565b979a9699509497509295939492505050565b600080602083850312156147a757600080fd5b82356001600160401b038111156147bd57600080fd5b61448a858286016146b7565b600080604083850312156147dc57600080fd5b6147e5836140d6565b915061417b602084016140d6565b600181811c9082168061480757607f821691505b602082108103611e9857634e487b7160e01b600052602260045260246000fd5b6020808252601e908201527f536f756c426f756e644e46543a206e6f74207472616e7366657261626c650000604082015260600190565b60208082526031908201527f4552433732313a207472616e736665722063616c6c6572206973206e6f74206f6040820152701ddb995c881b9bdc88185c1c1c9bdd9959607a1b606082015260800190565b6020808252602c908201527f46756e6374696f6e206d7573742062652063616c6c6564207468726f7567682060408201526b19195b1959d85d1958d85b1b60a21b606082015260800190565b6020808252602c908201527f46756e6374696f6e206d7573742062652063616c6c6564207468726f7567682060408201526b6163746976652070726f787960a01b606082015260800190565b634e487b7160e01b600052601260045260246000fd5b634e487b7160e01b600052601160045260246000fd5b60008261498257614982614947565b500490565b60008160001904831182151516156149a1576149a161495d565b500290565b60208082526025908201527f746f6b656e20646f65736e2774206578697374206f7220686173206265656e20604082015264189d5c9b9d60da1b606082015260800190565b60208082526023908201527f536f756c426f756e644e46543a204172726179206c656e677468206d69736d616040820152620e8c6d60eb1b606082015260800190565b634e487b7160e01b600052603260045260246000fd5b6000808335601e19843603018112614a5b57600080fd5b8301803591506001600160401b03821115614a7557600080fd5b6020019150368190038213156131d657600080fd5b600060018201614a9c57614a9c61495d565b5060010190565b600082821015614ab557614ab561495d565b500390565b60008219821115614acd57614acd61495d565b500190565b600060208284031215614ae457600080fd5b5051919050565b6020808252602b908201527f496e697469616c697a61626c653a20636f6e7472616374206973206e6f74206960408201526a6e697469616c697a696e6760a81b606082015260800190565b60208082526032908201527f4552433732313a207472616e7366657220746f206e6f6e20455243373231526560408201527131b2b4bb32b91034b6b83632b6b2b73a32b960711b606082015260800190565b8054600090600181811c9080831680614ba257607f831692505b60208084108203614bc357634e487b7160e01b600052602260045260246000fd5b818015614bd75760018114614be857614c15565b60ff19861689528489019650614c15565b60008881526020902060005b86811015614c0d5781548b820152908501908301614bf4565b505084890196505b50505050505092915050565b60008151614c33818560208601614052565b9290920192915050565b7f3c73766720786d6c6e733d27687474703a2f2f7777772e77332e6f72672f323081527f30302f7376672720786d6c6e733a786c696e6b3d27687474703a2f2f7777772e60208201527f77332e6f72672f313939392f786c696e6b272076696577426f783d273020302060408201527f313230302031363030272077696474683d273132303027206865696768743d2760608201527f3136303027207374796c653d276261636b67726f756e642d636f6c6f723a776860808201526434ba32939f60d91b60a08201526000614d1560a5830187614b88565b7f3c74657874207374796c653d27666f6e743a20626f6c6420313030707820736181527f6e732d73657269663b2720746578742d616e63686f723d276d6964646c65272060208201527f616c69676e6d656e742d626173656c696e653d2763656e7472616c2720783d2760408201526d1b181813903c9e9398991a98139f60911b6060820152614f09614ef7614dc0614ef1614e65614dc0614e5f614dd3614dc0606e8a018f614c21565b661e17ba32bc3a1f60c91b815260070190565b7f3c74657874207374796c653d27666f6e743a20626f6c6420313030707820736181527f6e732d73657269663b2720746578742d616e63686f723d276d6964646c65272060208201527f616c69676e6d656e742d626173656c696e653d2763656e7472616c2720783d2760408201526d1b181813903c9e9398999a98139f60911b6060820152606e0190565b8b614c21565b7f3c74657874207374796c653d27666f6e743a20626f6c6420313030707820736181527f6e732d73657269663b2720746578742d616e63686f723d276d6964646c65272060208201527f616c69676e6d656e742d626173656c696e653d2763656e7472616c2720783d2760408201526d1b181813903c9e93989a1a98139f60911b6060820152606e0190565b87614b88565b651e17b9bb339f60d11b815260060190565b979650505050505050565b6703d901134b2111d160c51b81528651600090614f38816008850160208c01614052565b6e1610113734b1b5a730b6b2911d101160891b6008918401918201528751614f67816017840160208c01614052565b6b111610113937b632911d101160a11b601792909101918201528651614f94816023840160208b01614052565b731116101137b933b0b734bd30ba34b7b7111d101160611b602392909101918201528551614fc9816037840160208a01614052565b70111610113a37b5b2b72730b6b2911d101160791b603792909101918201528451614ffb816048840160208901614052565b6150586150496150436048848601017f222c2022696d616765223a2022646174613a696d6167652f7376672b786d6c3b81526618985cd94d8d0b60ca1b602082015260270190565b87614c21565b6222207d60e81b815260030190565b9a9950505050505050505050565b7f646174613a6170706c69636174696f6e2f6a736f6e3b757466382c000000000081526000825161509e81601b850160208701614052565b91909101601b0192915050565b7f416363657373436f6e74726f6c3a206163636f756e74200000000000000000008152600083516150e3816017850160208801614052565b7001034b99036b4b9b9b4b733903937b6329607d1b6017918401918201528351615114816028840160208801614052565b01602801949350505050565b634e487b7160e01b600052602160045260246000fd5b6001600160a01b03858116825284166020820152604081018390526080606082018190526000906151699083018461407e565b9695505050505050565b60006020828403121561518557600080fd5b8151610f898161401f565b60008261519f5761519f614947565b500690565b6000816151b3576151b361495d565b506000190190565b600082516151cd818460208701614052565b919091019291505056fe360894a13ba1a3210667c828492db98dca3e2076cc3735a920a3ca505d382bbc4142434445464748494a4b4c4d4e4f505152535455565758595a6162636465666768696a6b6c6d6e6f707172737475767778797a303132333435363738392b2f416464726573733a206c6f772d6c6576656c2064656c65676174652063616c6c206661696c65649f2df0fed2c77648de5860a4cc508cd0818c85b8b8a1ab4ceeef8d981c8956a6a2646970667358221220c2b35afdc1e532081bf46becc3c3f5b997ff8a808870d397b6a3cc8a1c0cf45664736f6c634300080d0033",
  "devdoc": {
    "kind": "dev",
    "methods": {
      "DOMAIN_SEPARATOR()": {
        "details": "Returns the contract's {EIP712} domain separator."
      },
      "approve(address,uint256)": {
        "details": "See {IERC721-approve}."
      },
      "balanceOf(address)": {
        "details": "See {IERC721-balanceOf}."
      },
      "burn(uint256)": {
        "details": "Burns `tokenId`. See {ERC721-_burn}. Requirements: - The caller must own `tokenId` or be an approved operator."
      },
      "constructor": {
        "custom:oz-upgrades-unsafe-allow": "constructor"
      },
      "delegate(address)": {
        "details": "Delegates votes from the sender to `delegatee`."
      },
      "delegateBySig(address,uint256,uint256,uint8,bytes32,bytes32)": {
        "details": "Delegates votes from signer to `delegatee`."
      },
      "delegates(address)": {
        "details": "Returns the delegate that `account` has chosen."
      },
      "getApproved(uint256)": {
        "details": "See {IERC721-getApproved}."
      },
      "getPastTotalSupply(uint256)": {
        "details": "Returns the total supply of votes available at the end of a past block (`blockNumber`). NOTE: This value is the sum of all available votes, which is not necessarily the sum of all delegated votes. Votes that have not been delegated are still part of total supply, even though they would not participate in a vote. Requirements: - `blockNumber` must have been already mined"
      },
      "getPastVotes(address,uint256)": {
        "details": "Returns the amount of votes that `account` had at the end of a past block (`blockNumber`). Requirements: - `blockNumber` must have been already mined"
      },
      "getRoleAdmin(bytes32)": {
        "details": "Returns the admin role that controls `role`. See {grantRole} and {revokeRole}. To change a role's admin, use {_setRoleAdmin}."
      },
      "getVotes(address)": {
        "details": "Returns the current amount of votes that `account` has."
      },
      "grantRole(bytes32,address)": {
        "details": "Grants `role` to `account`. If `account` had not been already granted `role`, emits a {RoleGranted} event. Requirements: - the caller must have ``role``'s admin role. May emit a {RoleGranted} event."
      },
      "hasRole(bytes32,address)": {
        "details": "Returns `true` if `account` has been granted `role`."
      },
      "isApprovedForAll(address,address)": {
        "details": "See {IERC721-isApprovedForAll}."
      },
      "name()": {
        "details": "See {IERC721Metadata-name}."
      },
      "nonces(address)": {
        "details": "Returns an address nonce."
      },
      "ownerOf(uint256)": {
        "details": "See {IERC721-ownerOf}."
      },
      "paused()": {
        "details": "Returns true if the contract is paused, and false otherwise."
      },
      "proxiableUUID()": {
        "details": "Implementation of the ERC1822 {proxiableUUID} function. This returns the storage slot used by the implementation. It is used to validate that the this implementation remains valid after an upgrade. IMPORTANT: A proxy pointing at a proxiable contract should not be considered proxiable itself, because this risks bricking a proxy that upgrades to it, by delegating to itself until out of gas. Thus it is critical that this function revert if invoked through a proxy. This is guaranteed by the `notDelegated` modifier."
      },
      "renounceRole(bytes32,address)": {
        "details": "Revokes `role` from the calling account. Roles are often managed via {grantRole} and {revokeRole}: this function's purpose is to provide a mechanism for accounts to lose their privileges if they are compromised (such as when a trusted device is misplaced). If the calling account had been revoked `role`, emits a {RoleRevoked} event. Requirements: - the caller must be `account`. May emit a {RoleRevoked} event."
      },
      "revokeRole(bytes32,address)": {
        "details": "Revokes `role` from `account`. If `account` had been granted `role`, emits a {RoleRevoked} event. Requirements: - the caller must have ``role``'s admin role. May emit a {RoleRevoked} event."
      },
      "safeTransferFrom(address,address,uint256)": {
        "details": "See {IERC721-safeTransferFrom}."
      },
      "setApprovalForAll(address,bool)": {
        "details": "See {IERC721-setApprovalForAll}."
      },
      "symbol()": {
        "details": "See {IERC721Metadata-symbol}."
      },
      "tokenURI(uint256)": {
        "details": "See {IERC721Metadata-tokenURI}."
      },
      "transferFrom(address,address,uint256)": {
        "details": "See {IERC721-transferFrom}."
      },
      "upgradeTo(address)": {
        "details": "Upgrade the implementation of the proxy to `newImplementation`. Calls {_authorizeUpgrade}. Emits an {Upgraded} event."
      },
      "upgradeToAndCall(address,bytes)": {
        "details": "Upgrade the implementation of the proxy to `newImplementation`, and subsequently execute the function call encoded in `data`. Calls {_authorizeUpgrade}. Emits an {Upgraded} event."
      }
    },
    "version": 1
  },
  "userdoc": {
    "kind": "user",
    "methods": {},
    "notice": "SoulBoundNFT Based on Membership NFTs by Ezra Weller and R Group, working with Rarible DAO",
    "version": 1
  },
  "storageLayout": {
    "storage": [
      {
        "astId": 1360,
        "contract": "contracts/SoulBoundNFT.sol:SoulBoundNFT",
        "label": "_initialized",
        "offset": 0,
        "slot": "0",
        "type": "t_uint8"
      },
      {
        "astId": 1363,
        "contract": "contracts/SoulBoundNFT.sol:SoulBoundNFT",
        "label": "_initializing",
        "offset": 1,
        "slot": "0",
        "type": "t_bool"
      },
      {
        "astId": 3458,
        "contract": "contracts/SoulBoundNFT.sol:SoulBoundNFT",
        "label": "__gap",
        "offset": 0,
        "slot": "1",
        "type": "t_array(t_uint256)50_storage"
      },
      {
        "astId": 4400,
        "contract": "contracts/SoulBoundNFT.sol:SoulBoundNFT",
        "label": "__gap",
        "offset": 0,
        "slot": "51",
        "type": "t_array(t_uint256)50_storage"
      },
      {
        "astId": 39,
        "contract": "contracts/SoulBoundNFT.sol:SoulBoundNFT",
        "label": "_roles",
        "offset": 0,
        "slot": "101",
        "type": "t_mapping(t_bytes32,t_struct(RoleData)34_storage)"
      },
      {
        "astId": 338,
        "contract": "contracts/SoulBoundNFT.sol:SoulBoundNFT",
        "label": "__gap",
        "offset": 0,
        "slot": "102",
        "type": "t_array(t_uint256)49_storage"
      },
      {
        "astId": 1796,
        "contract": "contracts/SoulBoundNFT.sol:SoulBoundNFT",
        "label": "_name",
        "offset": 0,
        "slot": "151",
        "type": "t_string_storage"
      },
      {
        "astId": 1798,
        "contract": "contracts/SoulBoundNFT.sol:SoulBoundNFT",
        "label": "_symbol",
        "offset": 0,
        "slot": "152",
        "type": "t_string_storage"
      },
      {
        "astId": 1802,
        "contract": "contracts/SoulBoundNFT.sol:SoulBoundNFT",
        "label": "_owners",
        "offset": 0,
        "slot": "153",
        "type": "t_mapping(t_uint256,t_address)"
      },
      {
        "astId": 1806,
        "contract": "contracts/SoulBoundNFT.sol:SoulBoundNFT",
        "label": "_balances",
        "offset": 0,
        "slot": "154",
        "type": "t_mapping(t_address,t_uint256)"
      },
      {
        "astId": 1810,
        "contract": "contracts/SoulBoundNFT.sol:SoulBoundNFT",
        "label": "_tokenApprovals",
        "offset": 0,
        "slot": "155",
        "type": "t_mapping(t_uint256,t_address)"
      },
      {
        "astId": 1816,
        "contract": "contracts/SoulBoundNFT.sol:SoulBoundNFT",
        "label": "_operatorApprovals",
        "offset": 0,
        "slot": "156",
        "type": "t_mapping(t_address,t_mapping(t_address,t_bool))"
      },
      {
        "astId": 2658,
        "contract": "contracts/SoulBoundNFT.sol:SoulBoundNFT",
        "label": "__gap",
        "offset": 0,
        "slot": "157",
        "type": "t_array(t_uint256)44_storage"
      },
      {
        "astId": 4216,
        "contract": "contracts/SoulBoundNFT.sol:SoulBoundNFT",
        "label": "_HASHED_NAME",
        "offset": 0,
        "slot": "201",
        "type": "t_bytes32"
      },
      {
        "astId": 4218,
        "contract": "contracts/SoulBoundNFT.sol:SoulBoundNFT",
        "label": "_HASHED_VERSION",
        "offset": 0,
        "slot": "202",
        "type": "t_bytes32"
      },
      {
        "astId": 4356,
        "contract": "contracts/SoulBoundNFT.sol:SoulBoundNFT",
        "label": "__gap",
        "offset": 0,
        "slot": "203",
        "type": "t_array(t_uint256)50_storage"
      },
      {
        "astId": 536,
        "contract": "contracts/SoulBoundNFT.sol:SoulBoundNFT",
        "label": "_delegation",
        "offset": 0,
        "slot": "253",
        "type": "t_mapping(t_address,t_address)"
      },
      {
        "astId": 541,
        "contract": "contracts/SoulBoundNFT.sol:SoulBoundNFT",
        "label": "_delegateCheckpoints",
        "offset": 0,
        "slot": "254",
        "type": "t_mapping(t_address,t_struct(History)3198_storage)"
      },
      {
        "astId": 544,
        "contract": "contracts/SoulBoundNFT.sol:SoulBoundNFT",
        "label": "_totalCheckpoints",
        "offset": 0,
        "slot": "255",
        "type": "t_struct(History)3198_storage"
      },
      {
        "astId": 549,
        "contract": "contracts/SoulBoundNFT.sol:SoulBoundNFT",
        "label": "_nonces",
        "offset": 0,
        "slot": "256",
        "type": "t_mapping(t_address,t_struct(Counter)3465_storage)"
      },
      {
        "astId": 963,
        "contract": "contracts/SoulBoundNFT.sol:SoulBoundNFT",
        "label": "__gap",
        "offset": 0,
        "slot": "257",
        "type": "t_array(t_uint256)46_storage"
      },
      {
        "astId": 2939,
        "contract": "contracts/SoulBoundNFT.sol:SoulBoundNFT",
        "label": "__gap",
        "offset": 0,
        "slot": "303",
        "type": "t_array(t_uint256)50_storage"
      },
      {
        "astId": 2842,
        "contract": "contracts/SoulBoundNFT.sol:SoulBoundNFT",
        "label": "__gap",
        "offset": 0,
        "slot": "353",
        "type": "t_array(t_uint256)50_storage"
      },
      {
        "astId": 1661,
        "contract": "contracts/SoulBoundNFT.sol:SoulBoundNFT",
        "label": "_paused",
        "offset": 0,
        "slot": "403",
        "type": "t_bool"
      },
      {
        "astId": 1766,
        "contract": "contracts/SoulBoundNFT.sol:SoulBoundNFT",
        "label": "__gap",
        "offset": 0,
        "slot": "404",
        "type": "t_array(t_uint256)49_storage"
      },
      {
        "astId": 1342,
        "contract": "contracts/SoulBoundNFT.sol:SoulBoundNFT",
        "label": "__gap",
        "offset": 0,
        "slot": "453",
        "type": "t_array(t_uint256)50_storage"
      },
      {
        "astId": 1639,
        "contract": "contracts/SoulBoundNFT.sol:SoulBoundNFT",
        "label": "__gap",
        "offset": 0,
        "slot": "503",
        "type": "t_array(t_uint256)50_storage"
      },
      {
        "astId": 8604,
        "contract": "contracts/SoulBoundNFT.sol:SoulBoundNFT",
        "label": "_counter",
        "offset": 0,
        "slot": "553",
        "type": "t_struct(Counter)7782_storage"
      },
      {
        "astId": 8606,
        "contract": "contracts/SoulBoundNFT.sol:SoulBoundNFT",
        "label": "devVault",
        "offset": 0,
        "slot": "554",
        "type": "t_address_payable"
      },
      {
        "astId": 8608,
        "contract": "contracts/SoulBoundNFT.sol:SoulBoundNFT",
        "label": "_organization",
        "offset": 0,
        "slot": "555",
        "type": "t_string_storage"
      },
      {
        "astId": 8610,
        "contract": "contracts/SoulBoundNFT.sol:SoulBoundNFT",
        "label": "_defaultRole",
        "offset": 0,
        "slot": "556",
        "type": "t_string_storage"
      },
      {
        "astId": 8612,
        "contract": "contracts/SoulBoundNFT.sol:SoulBoundNFT",
        "label": "_transferable",
        "offset": 0,
        "slot": "557",
        "type": "t_bool"
      },
      {
        "astId": 8614,
        "contract": "contracts/SoulBoundNFT.sol:SoulBoundNFT",
        "label": "_mintable",
        "offset": 1,
        "slot": "557",
        "type": "t_bool"
      },
      {
        "astId": 8616,
        "contract": "contracts/SoulBoundNFT.sol:SoulBoundNFT",
        "label": "_mintPrice",
        "offset": 0,
        "slot": "558",
        "type": "t_uint256"
      },
      {
        "astId": 8618,
        "contract": "contracts/SoulBoundNFT.sol:SoulBoundNFT",
        "label": "_vault",
        "offset": 0,
        "slot": "559",
        "type": "t_address"
      },
      {
        "astId": 8620,
        "contract": "contracts/SoulBoundNFT.sol:SoulBoundNFT",
        "label": "svgLogo",
        "offset": 0,
        "slot": "560",
        "type": "t_string_storage"
      },
      {
        "astId": 8625,
        "contract": "contracts/SoulBoundNFT.sol:SoulBoundNFT",
        "label": "_tokenOwnerInfo",
        "offset": 0,
        "slot": "561",
        "type": "t_mapping(t_uint256,t_struct(TokenOwnerInfo)8601_storage)"
      },
      {
        "astId": 8629,
        "contract": "contracts/SoulBoundNFT.sol:SoulBoundNFT",
        "label": "_mintedTo",
        "offset": 0,
        "slot": "562",
        "type": "t_mapping(t_uint256,t_address)"
      }
    ],
    "types": {
      "t_address": {
        "encoding": "inplace",
        "label": "address",
        "numberOfBytes": "20"
      },
      "t_address_payable": {
        "encoding": "inplace",
        "label": "address payable",
        "numberOfBytes": "20"
      },
      "t_array(t_struct(Checkpoint)3193_storage)dyn_storage": {
        "base": "t_struct(Checkpoint)3193_storage",
        "encoding": "dynamic_array",
        "label": "struct CheckpointsUpgradeable.Checkpoint[]",
        "numberOfBytes": "32"
      },
      "t_array(t_uint256)44_storage": {
        "base": "t_uint256",
        "encoding": "inplace",
        "label": "uint256[44]",
        "numberOfBytes": "1408"
      },
      "t_array(t_uint256)46_storage": {
        "base": "t_uint256",
        "encoding": "inplace",
        "label": "uint256[46]",
        "numberOfBytes": "1472"
      },
      "t_array(t_uint256)49_storage": {
        "base": "t_uint256",
        "encoding": "inplace",
        "label": "uint256[49]",
        "numberOfBytes": "1568"
      },
      "t_array(t_uint256)50_storage": {
        "base": "t_uint256",
        "encoding": "inplace",
        "label": "uint256[50]",
        "numberOfBytes": "1600"
      },
      "t_bool": {
        "encoding": "inplace",
        "label": "bool",
        "numberOfBytes": "1"
      },
      "t_bytes32": {
        "encoding": "inplace",
        "label": "bytes32",
        "numberOfBytes": "32"
      },
      "t_mapping(t_address,t_address)": {
        "encoding": "mapping",
        "key": "t_address",
        "label": "mapping(address => address)",
        "numberOfBytes": "32",
        "value": "t_address"
      },
      "t_mapping(t_address,t_bool)": {
        "encoding": "mapping",
        "key": "t_address",
        "label": "mapping(address => bool)",
        "numberOfBytes": "32",
        "value": "t_bool"
      },
      "t_mapping(t_address,t_mapping(t_address,t_bool))": {
        "encoding": "mapping",
        "key": "t_address",
        "label": "mapping(address => mapping(address => bool))",
        "numberOfBytes": "32",
        "value": "t_mapping(t_address,t_bool)"
      },
      "t_mapping(t_address,t_struct(Counter)3465_storage)": {
        "encoding": "mapping",
        "key": "t_address",
        "label": "mapping(address => struct CountersUpgradeable.Counter)",
        "numberOfBytes": "32",
        "value": "t_struct(Counter)3465_storage"
      },
      "t_mapping(t_address,t_struct(History)3198_storage)": {
        "encoding": "mapping",
        "key": "t_address",
        "label": "mapping(address => struct CheckpointsUpgradeable.History)",
        "numberOfBytes": "32",
        "value": "t_struct(History)3198_storage"
      },
      "t_mapping(t_address,t_uint256)": {
        "encoding": "mapping",
        "key": "t_address",
        "label": "mapping(address => uint256)",
        "numberOfBytes": "32",
        "value": "t_uint256"
      },
      "t_mapping(t_bytes32,t_struct(RoleData)34_storage)": {
        "encoding": "mapping",
        "key": "t_bytes32",
        "label": "mapping(bytes32 => struct AccessControlUpgradeable.RoleData)",
        "numberOfBytes": "32",
        "value": "t_struct(RoleData)34_storage"
      },
      "t_mapping(t_uint256,t_address)": {
        "encoding": "mapping",
        "key": "t_uint256",
        "label": "mapping(uint256 => address)",
        "numberOfBytes": "32",
        "value": "t_address"
      },
      "t_mapping(t_uint256,t_struct(TokenOwnerInfo)8601_storage)": {
        "encoding": "mapping",
        "key": "t_uint256",
        "label": "mapping(uint256 => struct SoulBoundNFT.TokenOwnerInfo)",
        "numberOfBytes": "32",
        "value": "t_struct(TokenOwnerInfo)8601_storage"
      },
      "t_string_storage": {
        "encoding": "bytes",
        "label": "string",
        "numberOfBytes": "32"
      },
      "t_struct(Checkpoint)3193_storage": {
        "encoding": "inplace",
        "label": "struct CheckpointsUpgradeable.Checkpoint",
        "members": [
          {
            "astId": 3190,
            "contract": "contracts/SoulBoundNFT.sol:SoulBoundNFT",
            "label": "_blockNumber",
            "offset": 0,
            "slot": "0",
            "type": "t_uint32"
          },
          {
            "astId": 3192,
            "contract": "contracts/SoulBoundNFT.sol:SoulBoundNFT",
            "label": "_value",
            "offset": 4,
            "slot": "0",
            "type": "t_uint224"
          }
        ],
        "numberOfBytes": "32"
      },
      "t_struct(Counter)3465_storage": {
        "encoding": "inplace",
        "label": "struct CountersUpgradeable.Counter",
        "members": [
          {
            "astId": 3464,
            "contract": "contracts/SoulBoundNFT.sol:SoulBoundNFT",
            "label": "_value",
            "offset": 0,
            "slot": "0",
            "type": "t_uint256"
          }
        ],
        "numberOfBytes": "32"
      },
      "t_struct(Counter)7782_storage": {
        "encoding": "inplace",
        "label": "struct Counters.Counter",
        "members": [
          {
            "astId": 7781,
            "contract": "contracts/SoulBoundNFT.sol:SoulBoundNFT",
            "label": "_value",
            "offset": 0,
            "slot": "0",
            "type": "t_uint256"
          }
        ],
        "numberOfBytes": "32"
      },
      "t_struct(History)3198_storage": {
        "encoding": "inplace",
        "label": "struct CheckpointsUpgradeable.History",
        "members": [
          {
            "astId": 3197,
            "contract": "contracts/SoulBoundNFT.sol:SoulBoundNFT",
            "label": "_checkpoints",
            "offset": 0,
            "slot": "0",
            "type": "t_array(t_struct(Checkpoint)3193_storage)dyn_storage"
          }
        ],
        "numberOfBytes": "32"
      },
      "t_struct(RoleData)34_storage": {
        "encoding": "inplace",
        "label": "struct AccessControlUpgradeable.RoleData",
        "members": [
          {
            "astId": 31,
            "contract": "contracts/SoulBoundNFT.sol:SoulBoundNFT",
            "label": "members",
            "offset": 0,
            "slot": "0",
            "type": "t_mapping(t_address,t_bool)"
          },
          {
            "astId": 33,
            "contract": "contracts/SoulBoundNFT.sol:SoulBoundNFT",
            "label": "adminRole",
            "offset": 0,
            "slot": "1",
            "type": "t_bytes32"
          }
        ],
        "numberOfBytes": "64"
      },
      "t_struct(TokenOwnerInfo)8601_storage": {
        "encoding": "inplace",
        "label": "struct SoulBoundNFT.TokenOwnerInfo",
        "members": [
          {
            "astId": 8598,
            "contract": "contracts/SoulBoundNFT.sol:SoulBoundNFT",
            "label": "nickName",
            "offset": 0,
            "slot": "0",
            "type": "t_string_storage"
          },
          {
            "astId": 8600,
            "contract": "contracts/SoulBoundNFT.sol:SoulBoundNFT",
            "label": "role",
            "offset": 0,
            "slot": "1",
            "type": "t_string_storage"
          }
        ],
        "numberOfBytes": "64"
      },
      "t_uint224": {
        "encoding": "inplace",
        "label": "uint224",
        "numberOfBytes": "28"
      },
      "t_uint256": {
        "encoding": "inplace",
        "label": "uint256",
        "numberOfBytes": "32"
      },
      "t_uint32": {
        "encoding": "inplace",
        "label": "uint32",
        "numberOfBytes": "4"
      },
      "t_uint8": {
        "encoding": "inplace",
        "label": "uint8",
        "numberOfBytes": "1"
      }
    }
  }
}